:02000002B0004C
:1040000000400B00EA980B00000006000C000502BF
:084010000401B41400000000DB
:0440180008830B000E
:10401C0010F8012B11F8013B012A28BF9A42F7D066
:10402C00D01A7047034613F8012B002AFBD1181A3B
:10403C000138704709480A49884208B505D0094A31
:10404C00824202D0121A04F00FF80748074A0021E6
:10405C00121A04F017F8014808BD00BF34E203201F
:10406C0050980B00A0E20320A0E20320F0E703200D
:10407C0070B5074E074C03F067FDA41BA408002580
:10408C00AC4200D170BD56F8043B98470135F7E7B8
:10409C0008980B002C980B0000F0DEBD08B500F062
:1040AC003DFDBDE8084003F007BD02F0EDBC02F099
:1040BC00EBBC02F0F1BC000008B5034A03490C202C
:1040CC0002F036FCFEE700BF9D650B001C830B0065
:1040DC000078B0FA80F040097047012303707047F4
:1040EC0008B502F05DFA034B1860BDE8084002F019
:1040FC005BBC00BF28E7032003682BB142689342E6
:10410C0002D2184603F0A8BF0020704738B50568E6
:10411C00044645B143689D4205D22846FFF782FF0D
:10412C00013005442560204638BDF8B50446476883
:10413C000D4621B903687A1C4260D955F8BD084672
:10414C00FFF770FFA368461CF2199A42F6D8206854
:10415C0032462946384403F087FF6068304460607B
:10416C00ECE7000038B504460B46D0E901012568A0
:10417C00044A091A284402F097FC6368013003448E
:10418C00636038BD31830B0038B504460B46D0E96B
:10419C0001012568044A091A284402F085FC636869
:1041AC0001300344636038BD34830B0008B5002133
:1041BC00132003F04AFD0021122003F046FDBDE858
:1041CC0008400021112003F040BD000070B50446EA
:1041DC0013480D46164601F0BFFC1148012101F0B1
:1041EC0002FB0F48002303614FF0011343619EB1A2
:1041FC00002C0FDA2D2102F0D3FE614208480A226E
:10420C0002F0E7FE064802F0CEFEBDE8704004481E
:10421C0001F010BF2146F1E7294602F0D0FEF4E789
:10422C00FCE2032008B500234377006803F0A6FAEC
:10423C00BDE8084002F0A0B82DE9F0438F188FB00C
:10424C00B942CDE9051706468946904680F0C280F2
:10425C0005A80D88FFF75AFF0368BB4280F0BA80AF
:10426C0005980378412B49D1013003F0F5FE052860
:10427C0037DDFF2447F276239D4200F0D38041D8EE
:10428C0047F261239D4200F0A88047F264239D42CF
:10429C006BD046F670539D4241D1784D784EDFF885
:1042AC00F4810598B84280F095800378412B4BD16E
:1042BC00013003F0D1FE052839DDFF2405A8FFF7F6
:1042CC0025FFDDF8149029464846FFF7A1FE01466C
:1042DC0000283DD1204603F0A7FC05A8FFF716FFE8
:1042EC00DFE70598013003F0B7FE0028C1DB059825
:1042FC00013003F0B1FE0E30C4B2BBE705A8FFF7E6
:10430C00FBFEF9E747F264739D424FD047F2767398
:10431C009D4200F0978047F261739D426FD000235D
:10432C00CDE9013302220092728B19463AE00598CE
:10433C00013003F091FE0028BFDB0598013003F03B
:10434C008BFE0E30C4B2B9E705A8FFF7D5FEF9E72E
:10435C0031464846FFF75CFE28B141464846FFF718
:10436C0057FE0028B9D10121B4E70AAB45490793A0
:10437C0007A810230025CDE90853FFF7D6FE07A8A0
:10438C002146FFF7EFFE204603F078FC014607A814
:10439C00FFF7FAFE089BCDE90155013B0093079B03
:1043AC002A461421304600F085FA13E005A8FFF7E1
:1043BC00ADFE03689F420DD9A4B20121204603F043
:1043CC0033FC05A8FFF798FE011E18BF01212046FB
:1043DC0003F03BFC0FB0BDE8F0830AAB079307A8D2
:1043EC00102329490025CDE90853FFF79EFE07A8A5
:1043FC002146FFF7B7FE204603F053FCC6E705A89D
:10440C00FFF784FE03689F42E4D9A4B20121204641
:10441C0003F00AFC05A8FFF76FFE0146204603F0E7
:10442C0057FCD7E720468DF8284001F0A7FF03463C
:10443C000AA823B1154A934201D09847CAE701F064
:10444C0099FFC7E705A8FFF761FE059B8DF81C4097
:10445C00A3EB0901A8EB01012046CDE90A310C912F
:10446C0001F096FF03460AA907A823B1084A934214
:10447C0001D09847AEE701F07EFFABE738830B0025
:10448C003B830B0043830B0046830B0081630B00C3
:10449C0083630B003F830B002DE9F0418CB004AF1C
:1044AC00044605220068391D02F0AFFEA8B30528AA
:1044BC0004D000202037BD46BDE8F081B7F80500D8
:1044CC0002F02EF9A7F80500B7F8070002F028F95A
:1044DC00B7F80530A7F807008046002BE9D03B79E8
:1044EC0023BB01F045FF0246E060607FB7F8073060
:1044FC00C0B9B7F80510012914D1092B0FD0C82B5E
:10450C0001D0042BD6D1012562612046657700F0DD
:10451C0081FAFFF7E5FD01F02FFF0120CAE7032325
:10452C006377C7E7581F18BF0120C3E7B0F5806F4A
:10453C0003D92046FFF776FEEFE700F1080323F0DE
:10454C0007036E46ADEB030D04AD02462946206809
:10455C0002F05BFE80454FF000007FD1B7F80730CA
:10456C00E85401F005FF3B79E060142B00F0A680C5
:10457C0048D80F2B00F0A28007D8022B48D0062B6E
:10458C0051D02046FFF74EFE58E0112BF9D10023F5
:10459C003B70B7F807302B449D42C7E903534DD20B
:1045AC0007F10C00D5F80080FFF7B0FDFB68B7F8F9
:1045BC0007105D1B4D1BC7E905357B68FD61C3F317
:1045CC000F236383644B984500F0BF8000F28C800E
:1045DC00A3F57F236FF400721344984500F09D807F
:1045EC0079D8A3F50033063B984500F09C8003F581
:1045FC000033033398456BD107F11401384601F0B1
:10460C00BAFE65E0292B1BD0372B17D01D2BB8D148
:10461C00637F43B901236377204600F0FBF9FFF772
:10462C005FFD01F0A9FE0023C821B7F80520009119
:10463C00CDE901331946204600F03CF901200DE08C
:10464C00A3681BB9402002F01FFAA060B7F80780DE
:10465C00A8444545C7E9055802D30020B54629E7CB
:10466C0029464022A06803F043FDA368002583F887
:10467C003F5007F11400FFF749FD036898451BD91B
:10468C00786920B1BB69984214D203F0E9FC85B279
:10469C00206803F073F82368A2685A631D8700230F
:1046AC00637701F065FEA0F59C500838C4E903005F
:1046BC006061C3E72846EAE75025E9E77B68B7F86D
:1046CC000720C3F30F23638329462046FFF7B4FD6D
:1046DC0000236383B2E7214B9845F9D107F114010C
:1046EC00384601F048FEF3E71D4B984521D003F105
:1046FC009F6303F5003303F5807398451FD003F1D6
:10470C006E4303F5302303F586739845E0D107F12A
:10471C001401384601F02FFEDAE707F11401384690
:10472C0001F029FED4E707F11401384601F023FE0D
:10473C00CEE707F11401384601F01DFEC8E707F17A
:10474C001401384601F017FEC2E707F11401384690
:10475C0001F011FEBCE700BF76667300646267006F
:10476C0061636F6E2DE9F04104468CB00D46FFF786
:10477C00B7FC637F022B1ED0237F628B0133DBB22D
:10478C002377AAB9022B13D8206802F0BFFEA8B178
:10479C0025B9206802F098FF00280FDD2046FFF7AE
:1047AC007BFE0028F5D1206802F0E8FF01F0E4FD63
:1047BC00237F013B23770CB0BDE8F08101F0D8FDDD
:1047CC000546206802F0A2FE677F012F064624D121
:1047DC0020B965612046FFF725FDE9E7E3684FF254
:1047EC001862EB1A9342F5D84AF6C872934203D872
:1047FC002369EB1A9342DBD9636941F27072EB1AAD
:10480C009342D5D90023CDE9013300931A460621F2
:10481C00204600F04FF86561CAE7002FC8D16369E4
:10482C00EB1A40B141F270729342C1D9206802F088
:10483C00A5FF6777BCE741F288329342B8D920686C
:10484C0002F09CFFD4F800C0DCF834E0BCF83880EF
:10485C00BEF1000F1BD0334642467146604602F053
:10486C00D7FD0128D7D16368059301251846258308
:10487C00FFF7D8FB0022CDE90122059B00902A46C8
:10488C001D21204600F016F82369636190E7084B60
:10489C0006930CF120070FCF07AE0FC63B683370A1
:1048AC004246734606A9604602F092FED9E700BF65
:1048BC0014940B002DE9F04F83B000AF0446006850
:1048CC003D6B884616469946EB4602F01FFE0028C3
:1048DC0000F08180B8F11D0F04D84D4B23FA08F37A
:1048EC00DB0702D4637F012B75D146B9668B36B9D1
:1048FC00238B01339BB2002B72D02383268BA8F120
:10490C000C03082B16D8D4E90323934238BF134663
:10491C0003F1420A01F02CFDAAEB0000002861DB38
:10492C0000212046FFF71EFF01F022FDAAEB00003C
:10493C000028F5DAB9F1000F5BD06B1D7A6B002AF9
:10494C00BA6B08BF002203EB020A0AF1070323F03B
:10495C000703ADEB030D30468DF80080C7F804D08B
:10496C0001F0E6FEBB6BADF80100E81880B201F077
:10497C00DFFEADF80300B9F1000F3CD0002D3AD0AA
:10498C002A4649460DF1050003F06EFB681D7B6B52
:10499C003BB1BB6B2BB11A467B68796B184403F0A7
:1049AC0063FB002555452AD2AAEB05027B682068DB
:1049BC00B2F5806F28BF4FF48062591902F059FC90
:1049CC000646002001F0D2FCBEB9206802F0D6FEEB
:1049DC00667701F0D1FC0C37DD46BD46BDE8F08FA3
:1049EC0001238AE7217F0029A4D12046FFF7BAFED4
:1049FC00A0E70523A2E70520C9E73544D2E703D099
:104A0C002046FFF70FFCE6E701F0B2FC2061E2E77D
:104A1C004500002030B599B008AB0446059300253D
:104A2C00402305A80B49CDE90653FFF77EFB05A8EB
:104A3C000949FFF77AFB069B0293059B01936523BB
:104A4C0000932A46054B11212046FFF733FF19B07E
:104A5C0030BD00BF49830B004E830B0004840B0058
:104A6C00F0B5ADF2244D08AB002405460F46059376
:104A7C0005A84FF480630E491646CDE90643FFF7AF
:104A8C0054FB394605A8FFF76DFB314605A8FFF727
:104A9C004CFB069B013B0093CDE90144059B224650
:104AAC0014212846FFF706FF0DF2244DF0BD00BF80
:104ABC005C830B0070B5ADF5856D002405920AAAD8
:104ACC0005460E46079207A84FF480621149CDE9BE
:104ADC000842FFF72AFB314607A8FFF743FBDDE945
:104AEC000801079E059B0C4A091A304401F0DCFFB3
:104AFC00431C089803440893013B0093CDE90144FF
:104B0C00079B224614212846FFF7D4FE0DF5856D30
:104B1C0070BD00BF5C830B005F830B0038B50021B8
:104B2C004448454CFFF71EFE444801F0BDFC444888
:104B3C0001F0E5FB434800F06DF9B0F57A7F0546CE
:104B4C0039D9FFF733FB1320012103F07EF83C48E1
:104B5C0001F0F8FB08B3227812BB3B491046FFF773
:104B6C0035FB374801F0E4FB2378002855D0002BA7
:104B7C0055D1364901222846FFF728FB304801F071
:104B8C00EBFB48B12E4800F0E7FF2D4801F052FA3C
:104B9C00237883F00103237038BD2378002BE0D0F9
:104BAC00274801F0CFFB0028DBD0274A21480921F8
:104BBC00FFF756FFD5E7962817D9FFF7F7FA12201B
:104BCC00012103F042F81E4801F0BCFB18B1227819
:104BDC0022B91F49C2E72378002BC2D0184801F034
:104BEC00B1FB0028BDD01A4AE0E7FFF7DFFA11202D
:104BFC00012103F02AF8124801F0A4FB18B1227825
:104C0C0022B91449AAE72378002BAAD00C4801F04A
:104C1C0099FB0028A5D00F4AC8E7002BAED0084856
:104C2C0001F086FB0028A9D002482A460821FFF78C
:104C3C0041FFA3E7A0E2032070E3032074E3032009
:104C4C00FCE203206CE3032062830B00CC890B0095
:104C5C0071830B0081830B00F8B50121132002F046
:104C6C00E3FF0121122002F0DFFF0121112002F0ED
:104C7C00DBFF2C482C4C01F019FB02F097FE4FF493
:104C8C00165102F087FE40F6B83001F06FFB274B4F
:104C9C00636001F06DFBA0F59C502368244A5A63B5
:104CAC000838C4E90300502260611A87002644F2D8
:104CBC004F67206802F062FD667701F059FB0546EC
:104CCC00637F012B0CD001F053FB401BB84204D87E
:104CDC0000212046FFF746FDF2E7637F012BE8D168
:104CEC00104800F039FF0F4801F0A4F94FF47A7026
:104CFC0001F00AFF02F05AFE0E4902F060F903F0CF
:104D0C0029F801F099FF03F025F801460A4800F054
:104D1C0062F930B902F04AFEBDE8F840074902F0EA
:104D2C004EB9F8BDFCE20320A0E203208E830B00F9
:104D3C00AF830B00BB830B006CE30320D5830B000C
:104D4C0010B5124C0021012001F012FE204602F099
:104D5C005FFD04F11C0001F0E9FF0D4A0D48002332
:104D6C00C2E90043C2E90233C2E90433936193837D
:104D7C006363238701F02BFB0748072101F068FAD6
:104D8C00BDE81040054800F00BB800BFC0E203209E
:104D9C00A0E2032074E30320FCE203206CE3032075
:104DAC00704710B504466021006801F077FF206859
:104DBC0001F07FFFB0FA80F0400910BD38B5054610
:104DCC000C460068602101F069FF286803682146E1
:104DDC009B6898472868002101F067FF08B1002004
:104DEC0038BD28680222602101F055FF286803684D
:104DFC001B6998470028F2D0286803685B699847BC
:104E0C000446286803685B699847E4B244EA0020CA
:104E1C0080B2E5E70821FFF7D1BF0C21FFF7CEBF29
:104E2C0070B504460E4600686021154601F036FF49
:104E3C002068036831469B68984720680368E9B28C
:104E4C009B68984720680368290A9B6898472068E4
:104E5C0001F02FFFB0FA80F0400970BD70B5044628
:104E6C000D461646FFF7AAFF00F47F4040EA060203
:104E7C0029462046BDE87040FFF7D2BF70B5044606
:104E8C000D461646FFF79AFFC0B240EA06222946A5
:104E9C002046BDE87040FFF7C3BF08B5FFF78EFF93
:104EAC00C0F3072008BD2DE9F04104469DF81870A9
:104EBC000D46984616466AB1FFF780FFC0B200EA6D
:104ECC00080343EA07022946204636B1BDE8F04103
:104EDC00FFF7C4BFFFF7E1FFF1E7BDE8F041FFF7D3
:104EEC00CDBFB1F5A07F07B50ED29F290ED84F29A3
:104EFC008CBF40230023009301223F230321FFF7A3
:104F0C00D2FF03B05DF804FBC023F4E78023F2E783
:104F1C00072907B50FD803290FD810D002290CBFC9
:104F2C000423002300930122F1230321FFF7BBFF8D
:104F3C0003B05DF804FB0E23F4E70C23F2E708231F
:104F4C00F0E707B5002300930122FE230321FFF7AE
:104F5C00AAFF03B05DF804FB07B50F298CBF08232B
:104F6C00002300930022F7230321FFF79CFF03B0DB
:104F7C005DF804FB07B5022300930122EF23042103
:104F8C00FFF791FF03B05DF804FBC72907B516D8EE
:104F9C00B32916D89F2916D88B2916D8772916D855
:104FAC00632916D84A2994BF002101210091F823C6
:104FBC0000220421FFF777FF03B05DF804FB072103
:104FCC00F4E70621F2E70521F0E70421EEE70321DF
:104FDC00ECE70221EAE738B504460846216001F007
:104FEC002BFE2046FFF7DDFE054610B900252846AE
:104FFC0038BD2046FFF711FFB0F5C37FF6D1204630
:10500C00C821FFF7C2FF20462821FFF76AFF204680
:10501C000821FFF77DFF10212046FFF79DFF20465A
:10502C00FFF7A8FF2046FFF78CFFE0E72DE9F04FD4
:10503C0085B01F46BDF93880BDF83C30A8EB02099D
:10504C00A7EB010AB9F1000FB8BFC9F10009BAF119
:10505C00000FB8BFCAF1000AD14583460C4615466D
:10506C0004DD3A462C4647460D469046BC4205DDCB
:10507C002A464546904622463C4617463E1BB2B24F
:10508C000092A8EB050282EAE271A1EBE271C6F391
:10509C00C03202FA86F64545B4BF01224FF0FF320A
:1050AC00019176100292BC421CDCDBF800200393C9
:1050BC00D145D2F81880C7BF294622462A46214638
:1050CC005846C047019A039BB61AB1B236B2002EAD
:1050DC0005DA029A1544009A56182DB236B20134EC
:1050EC0024B2E0E705B0BDE8F08F704710B4046857
:1050FC002469A4465DF8044B604730B40468BDF8DD
:10510C0008500295A46BA44630BC604730B40468C8
:10511C00BDF808500295E46BA44630BC604770B4EF
:10512C00BDF90C50BDF810600468CDE90356246C31
:10513C00A44670BC60472DE9F3411C460368BDF8DA
:10514C0020805B6905461646013C34440F4624B268
:10515C0098472B68CDF8048000949C6A28463B46FF
:10516C0032463946A0472B68DB6A284602B0BDE8B8
:10517C00F04118472DE9F3411D460368BDF8208026
:10518C005B69044617460E469847CDE900782268BD
:10519C006B1E3344956A20461BB23A463146A847EB
:1051AC002368DB6A204602B0BDE8F04118472DE9C0
:1051BC00F3471E460368BDF928905B69BDF82C8047
:1051CC000C460546174698472644B4422B680BDA22
:1051DC00CDF80080D3F820A021464B463A4628460D
:1051EC000134D04724B2F0E7DB6A284602B0BDE8B0
:1051FC00F047184713B502680191B0F90E100091F1
:10520C00146CB0F90C3000221146A04702B010BD4E
:10521C002DE9F74399421646BDF92870BDF82C903C
:10522C00026880460D461C4613D1BE42C8BF3346A9
:10523C00CDF82890C4BF3E461F467B1C946B9B1B2D
:10524C001BB2324629464046A44603B0BDE8F043A3
:10525C006047BE420AD19942C2BF0B4625461C4646
:10526C00631CCDF82890D46B5B1BE9E75369984716
:10527C00CDE90079D8F8003040469F6A3246234683
:10528C002946B847D8F80030DB6A404603B0BDE881
:10529C00F04318472DE9F3471D460368BDF82C80F1
:1052AC005B69BDF9289004460F461646984723685B
:1052BC00CDF80080D3F824A032462B463946204640
:1052CC00D0472368CDF8008009F1FF323244D3F87F
:1052DC0024A039462B46204612B2D0472368CDF87D
:1052EC000080D3F820A032464B4639462046D047A2
:1052FC006B1ED9192368CDF800801D6A20464B46D9
:10530C00324609B2A8472368DB6A204602B0BDE8E2
:10531C00F0471847704701F00303B0F90A20837671
:10532C00C907B0F9083059BF8381C2818281C3811A
:10533C007047000030B54281C281074A074D018198
:10534C00002481814FF0FF31C0E9051244600560F3
:10535C0004610477046230BD0101000174890B0003
:10536C002DE9F04F89B0CDE902120268BDF94880F1
:10537C000493BDF94C3052690593BDF850A0044616
:10538C00904718F107024FF0000648BF08F10E02D3
:10539C004FEAE20B01963546039B019ABDF90410C6
:1053AC009A18059B8B4212B227DD049B33444FF0B5
:1053BC00000906930FFA89F080451FFA89F117DD71
:1053CC004F0705BF069BC0106D001D5C18BFEDB2EA
:1053DC002B060AD5029B206807921944836909B2EF
:1053EC001F4620465346B847079A09F10109E1E7E1
:1053FC00019B013301935E44CEE72368DB6A2046B0
:10540C0009B0BDE8F04F18472DE9F04F2DED028B98
:10541C0091B01646026ABDF874809DF878509DF8DC
:10542C007C4003911F46BDF8703004938346002ADC
:10543C0040F0C580B0F90C308B4240F34C81B0F990
:10544C000E30B34240F34781062313FB0513002BA8
:10545C0040F3418106EBC403002B40F33C81037FF6
:10546C001BB9AF2F84BF0137FFB2DBF800305846B1
:10547C005B6998470522099200220592984A07EB2E
:10548C008703D3180C93B3B20693059A0C9B9B5CC1
:10549C000793ABB20B93BDF80C300893039B02FB44
:1054AC0005F919FA83F90FFA89F308EE103A082373
:1054BC000A93039B02EB030A4FF000090FFA8AFAD6
:1054CC00079ADBF80030D20752D5012D1FFA89F26A
:1054DC003ED1012C3CD19B6906991F46049B0A4482
:1054EC0012B251465846B84709F101034FFA83F9F5
:1054FC00079B5B0807930A9B013B13F0FF030A937E
:10550C00DED1059F01377BB20593099B013B13F05C
:10551C00FF030993B9D1049B43450FD0012DDBF850
:10552C0000303BD1012C39D10899CDF800800531E0
:10553C001C6A3246082309B25846A047DBF80030F3
:10554C00DB6A584611B0BDEC028BBDE8F04F184732
:10555C00069914FB02F20A44049901910094DB6948
:10556C0018EE101A1F4612B22B465846B847BBE726
:10557C00049A4245B8D0012D1FFA89F207D1012CAB
:10558C0005D19B6906991F460A444346A8E706992C
:10559C00CDF8048014FB02F20A44DFE70B9ACDF835
:1055AC00048002EB8201089AE4000A44114600943C
:1055BC00DC6932462B4609B25846A047BEE7137A3F
:1055CC00516812680B92FF1AFFB201EBC70331F856
:1055DC00372006929A780992DA780C92012D93F979
:1055EC00052093F906A00A9201D8012C57D9BDF9D0
:1055FC00283008930FFA8AF30793DBF800305846EB
:10560C005B699847B3B24FF000080E931AFA86F311
:10561C00C14647460F930C9B9F428FD2079B0E9A15
:10562C003B4403FB0423002205920F9A1BB202EBAE
:10563C00070A08EE103A0FFA8AFA4346099A0599B6
:10564C00914241D25A1CD2B25B070D9207D1069BF4
:10565C0006990B9A01339BB212F80190069319F03C
:10566C00800F12D0012DDBF80030BDF80C101AD1D0
:10567C00012C18D10A9A9B691144059A11441E46B3
:10568C005246049B09B25846B047059E0136F3B208
:10569C004FEA490905935FFA89F90D9BCEE7002380
:1056AC00CDE90733A9E70598089A024402FB0511D6
:1056BC00049ACDE90042DB6918EE102A1E4609B2A5
:1056CC002B465846B047E0E7099B013798445FFAF0
:1056DC0088F8FFB29FE711B0BDEC028BBDE8F08FEC
:1056EC006B840B00F0B5026A85B004460B46002AA9
:1056FC0034D10A2908D1438A0282427E03EBC203C9
:10570C006382012005B0F0BD0D29FAD0E17E007E48
:10571C00657E71B1B4F91060062111FB0061B4F91A
:10572C000C60B142C1BFB4F91210228201EBC50268
:10573C006282E28A0192A28A0092CDE90205B4F952
:10574C001220B4F910102046FFF75EFE237E228A49
:10575C0003EB430302EB43032382D2E70A2907D16D
:10576C0000230382417E927A438A01FB0233C7E70E
:10577C000D29C6D0157AA942C3D3517A9942C0D308
:10578C0051685D1BEDB201EBC505A87828B3E9782B
:10579C0019B3E17E267E677E91B195F90510084418
:1057AC00B4F9101006FB0011B4F90C00814207DDAE
:1057BC0000202082B4F91210927A02FB0712628246
:1057CC00E28A0192A28A0092CDE90267B4F9122012
:1057DC00B4F910102046FFF717FE2979227E238A90
:1057EC0001FB0233B8E7012938BF0121017641766C
:1057FC007047704710B510210446FEF75AFC20463E
:10580C0010BD0EB403B503AB002153F8042B019368
:10581C0001F0FDFB02B05DF804EB03B07047000033
:10582C0073B5044608462279A36832B1A3B90B4973
:10583C0002B0BDE8704001F0AFBB094A267B094DB0
:10584C000949647B012E18BF2946CDE9001407498C
:10585C00FFF7D7FF02B070BD054AEFE7D5890B0003
:10586C00CC890B00D1890B00CD890B00EB890B0087
:10587C00C4890B0010B5044B03600446C06A08B120
:10588C0001F00AF9204610BDC48E0B0010B5044679
:10589C00FFF7F0FF20465021FEF70BFC204610BD11
:1058AC00002910B54BDBB0F90C408C4247DD002AC7
:1058BC0045DBB0F90E40944241DD847E022C1FD0B2
:1058CC00032C26D0012C04D10489D24314440A465B
:1058DC0021B2012B23D0022B32D083BB002A1346DA
:1058EC000489C06AB8BFD31DDB1013FB041102F08E
:1058FC00070201239340425C22EA030242541EE059
:10590C000489013C611A4489D243224409B212B27F
:10591C00DFE74489013C641A114622B2D9E7002A18
:10592C0004891346B8BFD31DDB1013FB0411C36AE3
:10593C0002F0070001228240585C02435A5410BD09
:10594C00002A13460489C06AB8BFD31DDB1013FBB1
:10595C00041102F00702012303FA02F2435C5A40DD
:10596C00CCE7000070B504461D460026FFF7E2FCAC
:10597C00114B2360666215B902F0ECF90546FF2362
:10598C0084F8333084F836309DF9103084F8373091
:10599C000A4BA363012384F83C30059BA3644FF6A8
:1059AC00FF72069BA286C4E90A562664A4F84460DA
:1059BC00E364204670BD00BFC48E0B00108A0B0040
:1059CC00F8B50446806A0D4690B194F9301001F098
:1059DC0069F9A06A036800219B689847A06A03686C
:1059EC0029469B689847A06ABDE8F84001F061B968
:1059FC0094F93530014698B202F027F9606A20B16B
:105A0C002946BDE8F84001F0E5BB0826802794F94B
:105A1C00330005EA070180B202F017F994F934005B
:105A2C00012180B202F011F994F93400002180B206
:105A3C0002F00BF9013E4FEA5707E8D1F8BD38B533
:105A4C000446806A0D4680B1A16C01F0F1F8002D7E
:105A5C00204614BFA721A621FFF7B2FFA06A88B188
:105A6C00E16CBDE8384001F0E3B8606A18B104F1AC
:105A7C00380101F041FB94F93600002180B202F0AC
:105A8C00E4F8E4E794F93600012180B202F0DDF885
:105A9C00606A18B1BDE8384001F014BB38BD2DE97F
:105AAC00F8430446806A0D468F1840B394F93010C1
:105ABC0001F0F8F8A06A036800219B68984701265A
:105ACC00AF42A06A17D01F2E0CD901F0F2F894F94E
:105ADC003010A06A01F0E6F8A06A036800219B6808
:105AEC0098470126A06A15F8011B036801369B68CC
:105AFC009847F6B2E4E7BDE8F84301F0DAB894F958
:105B0C003530014698B202F0A0F8BD4222D0606A4E
:105B1C0015F8019B18B1494601F05CFBF5E7082626
:105B2C004FF0800894F9330009EA080180B202F0C2
:105B3C008CF894F93400012180B202F086F894F9C3
:105B4C003400002180B202F080F8013E4FEA580880
:105B5C00E8D1DAE7BDE8F883B0F90A30DA1D48BFBE
:105B6C0003F10E02B0F90830C06AD2105A4300217A
:105B7C0002F088BA2DE9FF411E46C36A9DF82880C1
:105B8C0004460F461546C3B12046FFF7E5FFB4F9AE
:105B9C000A00B4F90810202821DC20230122203827
:105BAC00CDE9013200EBD07073237339009301EB14
:105BBC00D171894B40F34F0221E0B0F90A30D81D66
:105BCC0048BF03F10E00B4F90830C010584300F080
:105BDC005BFFE0620028D7D104B0BDE8F08140380B
:105BEC00C0F3C03202FA80F240230120CDE901302B
:105BFC00522352390093794B01EBD171521020464C
:105C0C0041F34F01FFF7ACFBA06A84F83170002818
:105C1C0078D0002D74D1B4F90A30202B0CBF3C2560
:105C2C003D2584F83050B8F1000F01D001F004F894
:105C3C00FEB194F9370000281BDB012180B201F082
:105C4C00F3FF94F93700012180B201F0FEFF01202F
:105C5C0000F05AFF94F93700002180B201F0F5FFF3
:105C6C000A2000F051FF94F93700012180B201F0B5
:105C7C00ECFFA06A002874D0A16C00F0D9FF0422BC
:105C8C0057492046FFF70BFF61890139C9B22046FD
:105C9C00FFF796FE534904222046FFF700FF94F9C4
:105CAC003130012B0CBF102114212046FFF788FE48
:105CBC0004224D492046FFF7F2FEA3684B4A93425B
:105CCC005CD14B4904222046FFF7E9FED92120463E
:105CDC00FFF776FE94F93130012B0CBF2221F12114
:105CEC002046FFF76DFE204642490622FFF7D7FEFD
:105CFC00A06A002863D0E16C00F09AFF01206BE7EA
:105D0C006DB28EE794F93500012180B201F08CFF61
:105D1C0094F93600012180B201F086FF94F9360027
:105D2C00012180B201F091FF656A3DB1B8F1000F1D
:105D3C003FF47EAF284601F0B1F979E794F93300CE
:105D4C00012180B201F070FF94F93400012180B27E
:105D5C0001F06AFF94F93400294680B201F075FF16
:105D6C0066E7606A18B104F1380101F0C5F994F9DD
:105D7C003600002180B201F068FF80E71E4A934292
:105D8C000ED11E4903222046FFF789FE94F93130CB
:105D9C00012B0CBF9F21CF212046FFF711FE95E769
:105DAC00174A934292D1174903222046FFF777FEF8
:105DBC0094F93130012B0CBF1021AF21ECE794F991
:105DCC003600012180B201F040FF606A002895D0B6
:105DDC0001F078F992E700BFDC8C0B001C8A0B00F9
:105DEC00248F0B00288F0B002C8F0B0080002000C1
:105DFC00368F0B00308F0B00800040003A8F0B0069
:105E0C00600010003D8F0B0070B5002ABDF81050DB
:105E1C003DDBB0F90A40944239DD0029BEBF5B1866
:105E2C001BB20021B0F90840CE18A642C4BF631AB9
:105E3C001BB2002B2BDDC06AD61014FB06110144DB
:105E4C0002F0070001228240012DD2B216D0022DA1
:105E5C000BD0E5B9D243D2B20B44994217D011F80A
:105E6C00010B104001F8010CF7E70B4499420ED0DE
:105E7C0011F8010B504001F8010CF7E70B44994263
:105E8C0005D011F8010B104301F8010CF7E770BDB8
:105E9C00F0B50029BDF8145076DBB0F90860B142BA
:105EAC0072DA002ABEBF9B181BB20022B0F90A405E
:105EBC00D718A742C4BFA31A1BB2002B64DDC2F3D0
:105ECC00C404C76A16FB041612F00702DBB207EB18
:105EDC00060423D0C2F10802D2B22D4993423CBF32
:105EEC004FF0FF0CA2EB030E895C3CBF4CFA0EFC8E
:105EFC000CEA0101012D07D0022D2ED04DB917F857
:105F0C0006C02CEA010103E017F806C041EA0C01B7
:105F1C00B955934238D3B0F908100C449A1AD2B23E
:105F2C00072A0ED9022D1DD113462178C9432170A1
:105F3C00083BB0F90810DBB2072B0C44F5D802F083
:105F4C0007020AB3134B012D9B5C1AD0022D1CD0F7
:105F5C00D5B9227822EA030315E017F806C081EAC6
:105F6C000C01D5E7291E18BF01214942C9B21346BD
:105F7C002170083BB0F90860DBB2072B3444F7D82A
:105F8C00DDE7227813432370F0BD22785340FAE703
:105F9C00148F0B001C8F0B0070B41446827EBDF85E
:105FAC000C60022A0DD0032A18D0012A11D10289C3
:105FBC00E443144424B203960A46214670BCFFF70E
:105FCC0067BF42890589E44319441444691A24B211
:105FDC0009B20396224670BCFFF716BF45891944D7
:105FEC00691A09B2E7E730B41446827EBDF808504E
:105FFC00022A0DD0032A18D0012A11D1E2180489E3
:10600C00A41A24B202950A46214630BCFFF7FCBE06
:10601C000289C9431144E2184489A41A09B224B272
:10602C000295224630BCFFF733BF4289C943114465
:10603C0009B2E7E72DE9F8430446806A002842D00C
:10604C00A16C00F0F5FD474905222046FFF727FD1E
:10605C00218901392046C9B2FFF7B2FCB4F90A30E4
:10606C00DE1D48BF03F10E06D4E90A052389F6109C
:10607C0013FB06F615FA86F600283AD094F9301080
:10608C0000F010FEA06A036840219B689847012726
:10609C00B542A06A24D01F2F0CD900F00AFE94F947
:1060AC003010A06A00F0FEFDA06A036840219B68D6
:1060BC0098470127A06A15F8011B036801379B68F4
:1060CC009847FFB2E4E7606A18B104F1380101F0B7
:1060DC0013F894F93600002180B201F0B6FDB2E756
:1060EC0000F0E7FDA06A78B3E16CBDE8F84300F07E
:1060FC009FBD94F93500012180B201F0A6FDAE429E
:10610C00F0D0606A15F8019B18B1494601F062F8AD
:10611C00F5E708274FF0800894F9330009EA0801E5
:10612C0080B201F092FD94F93400012180B201F0AB
:10613C008CFD94F93400002180B201F086FD013F02
:10614C004FEA5808E8D1DAE794F93600012180B219
:10615C0001F07BFD606A18B1BDE8F84300F0B2BFF6
:10616C00BDE8F883408F0B0000210A22C0E9001221
:10617C007047002310B50446C171837188B201F0D9
:10618C007DFD08B10323A37100F00AFA206010BD55
:10619C0038B50C4605461146A0B201F045FD214626
:1061AC002846BDE83840FFF7E4BF38B50446C0794F
:1061BC0001F064FDA579003825F0080318BF012013
:1061CC00C5F340058542A3710AD000F0E9F9A37923
:1061DC00206083F00203A371A079C0F3C00038BD26
:1061EC0000F0DEF92368C01AA3889842F4D3A3798F
:1061FC0003F00103AB42EFD000F0D2F9A379206099
:10620C0083F0010343F00803E5E7807900F009000F
:10621C00A0F10803584258417047000010B5064BD6
:10622C0003600446006D08B100F09AF92046FFF7B0
:10623C0021FB204610BD00BF508F0B0010B504464B
:10624C00FFF7ECFF20467021FDF733FF204610BD11
:10625C0030B585B004460D4601F07CFD104A11495D
:10626C00CDE901214FF0FF328021034600922046F8
:10627C002022FFF777FB0C4B23600023C4E9143575
:10628C0004F15800FFF770FF04F16000FFF76CFF9A
:10629C0004F16800FFF768FF204605B030BD00BF71
:1062AC00801A0600A0860100508F0B0013B504461F
:1062BC00503000F04DF9636DD90705D50222042149
:1062CC0004F15800FFF764FF636D9A0705D50022AF
:1062DC00032104F16000FFF75BFF636D5B0705D5DD
:1062EC000222114604F16800FFF752FF01230093CC
:1062FC003C2202212046FFF73DFC02B010BD10B538
:10630C00436DD907044602D55830FFF74EFF636D35
:10631C009A0703D504F16000FFF747FF636D5B0735
:10632C0005D504F16800BDE81040FFF73EBF10BD75
:10633C00436D024613F0010003D002F15800FFF741
:10634C0064BF7047436D024613F0020003D002F1A4
:10635C006000FFF75ABF7047436D024613F004000C
:10636C0003D002F16800FFF750BF704700F0CCBBC0
:10637C0000F016B9704770477047000003065ABF0B
:10638C00024B53F820000020704700BFA08F0B0079
:10639C0003065ABF024B53F820000020704700BF81
:1063AC00A0910B0010B58368044613B1032201467B
:1063BC009847204610BD342303FB0101CB6823B959
:1063CC004869003818BF0120704701207047034608
:1063DC0000F550720021D96034339A42FBD14FF052
:1063EC00FF33C0F84033704713B50B460246D0E973
:1063FC0000016C4684E8030093E8030082E8030084
:10640C0094E8030083E803009868916890609960B1
:10641C00D168D868D060D96002B010BDF0B50F2932
:10642C0093B004460D463DD8D0F84033002B39D0FC
:10643C00FFF7C1FF002835D03426324675430021C2
:10644C0005A801F01FFE2F1D0023635101A906A80A
:10645C0027440393FFF7C8FF394601A86619FFF7D5
:10646C00C3FF01A8FFF79EFF0A9B73610B9BB361EF
:10647C009DF8303033770D9B33620E9B73620F9B0C
:10648C00B3629DF8403086F82C30119B336306A81C
:10649C00FFF788FFFFF76CFF6051D4F84033013BE6
:1064AC00C4F8403313B0F0BD2DE9F0470546FFF7B3
:1064BC005FFF002607462C46B1464FF001084FF00F
:1064CC00020AC4F8309031462846FFF774FF80B1B9
:1064DC002368216AFA1A8A420BD3B2FBF1F201FB50
:1064EC000233236094F82C301BB1626AEAB9C4F809
:1064FC0030800136102E04F13404E2D12C1D00261C
:10650C00E36A5BB1237EDBB1D4E904309847E36ADC
:10651C00022B03D131462846FFF780FF0136102E9F
:10652C0004F13404ECD1BDE8F087A36A9A42E0D9B7
:10653C0001339A42A3628CBF434653462363D8E788
:10654C00A3680BB901F06CFCE3682046DEE70000A1
:10655C0008B5024B1B681B6B019308BD4802030076
:10656C0008B5024B1B685B6B019308BD4802030026
:10657C0008B5024B1B685B6C019308BD4802030015
:10658C0008B5024B1B685B68019308BD1802030039
:10659C0008B5024B1B68DB68019308BD18020300A9
:1065AC0008B5024B1B685B69019308BD1802030018
:1065BC0008B5024B1B685B68019308BD2C020300F5
:1065CC0008B5024B1B689B68019308BD2C020300A5
:1065DC0008B5024B1B68DB68019308BD2C02030055
:1065EC0008B5024B1B681B69019308BD2C02030004
:1065FC0008B5024B1B685B69019308BD2C020300B4
:10660C0008B5024B1B689B6A019308BD2C02030062
:10661C0008B5024B1B681B6B019308BD2C020300D1
:10662C0008B5024B1B689B6F019308BD2C0203003D
:10663C0008B5024B1B681B68019308BD28020300B8
:10664C0008B5024B1B68DB68019308BD28020300E8
:10665C0008B5024B1B689B69019308BD2802030017
:10666C0008B5024B1B68DB69019308BD28020300C7
:10667C0008B5024B1B681B6A019308BD2802030076
:10668C0008B5024B1B685B6A019308BD2802030026
:10669C0008B5024B1B689B6A019308BD28020300D6
:1066AC0008B5024B1B68DB6A019308BD2802030086
:1066BC0008B5024B1B681B6B019308BD2802030035
:1066CC0008B5024B1B685B6B019308BD28020300E5
:1066DC0008B5024B1B681B6C019308BD2802030014
:1066EC0008B5024B1B681B6D019308BD2802030003
:1066FC0008B5024B1B685B69019308BD6C02030073
:10670C0008B5024B1B685B69019308BD640203006A
:10671C0008B5024B1B681B6A019308BD6402030099
:10672C0008B5024B1B685B6A019308BD6402030049
:10673C0008B5024B1B689B6A019308BD64020300F9
:10674C0008B5024B1B689B68019308BD68020300E7
:10675C0008B5024B1B68DB68019308BD6802030097
:10676C0008B5024B1B689B69019308BD38020300F6
:10677C0008B5024B1B68DB69019308BD38020300A6
:10678C0008B5024B1B681B6A019308BD3802030055
:10679C0008B5024B1B689B6A019308BD38020300C5
:1067AC0008B5024B1B681B6B019308BD3802030034
:1067BC0008B5024B1B689B6B019308BD38020300A4
:1067CC0008B5024B1B681B68019308BD300203001F
:1067DC0008B5024B1B685B69019308BD30020300CE
:1067EC0008B5024B1B68DB69019308BD300203003E
:1067FC0008B5024B1B681B6A019308BD30020300ED
:10680C0008B5024B1B685B6A019308BD300203009C
:10681C0008B5024B1B68DB6B019308BD300203000B
:10682C0008B5024B1B681B6C019308BD30020300BA
:10683C0008B5024B1B685B6C019308BD300203006A
:10684C0008B5024B1B68DB68019308BD3C020300D2
:10685C0008B5024B1B681B69019308BD3C02030081
:10686C0008B5024B1B685B69019308BD3C02030031
:10687C0008B5024B1B689B69019308BD3C020300E1
:10688C0008B5024B1B68DB69019308BD3C02030091
:10689C0008B5024B1B681B6A019308BD3C02030040
:1068AC0008B5024B1B689B6A019308BD3C020300B0
:1068BC0008B5024B1B681B6C019308BD3C0203001E
:1068CC0008B5024B1B681B68019308BD4C02030002
:1068DC0008B5024B1B685B68019308BD4C020300B2
:1068EC0008B5024B1B681B69019308BD4C020300E1
:1068FC0008B5024B1B685B69019308BD4C02030091
:10690C0008B5024B1B689B69019308BD4C02030040
:10691C0008B5024B1B68DB69019308BD4C020300F0
:10692C0008B5024B1B681B6A019308BD4C0203009F
:10693C0008B5024B1B685B6B019308BD600203003A
:10694C0008B5024B1B681B6D019308BD6002030068
:10695C0008B5024B1B685B68019308BD200203005D
:10696C0008B5024B1B685B69019308BD200203004C
:10697C0008B5024B1B68DB6A019308BD20020300BB
:10698C0008B5034B1B68D3F88830019308BD000091
:10699C002002030008B5034B1B68D3F89430019315
:1069AC0008BD00002002030008B5024B1B689B6861
:1069BC00019308BD4402030008B5024B1B68DB6B56
:1069CC00019308BD4402030008B5024B1B685B68C9
:1069DC00019308BD4002030008B5024B1B689B687D
:1069EC00019308BD4002030008B5024B1B68DB682D
:1069FC00019308BD4002030008B5024B1B681B69DC
:106A0C00019308BD4002030008B5024B1B685B698B
:106A1C00019308BD4002030008B5024B1B689B693B
:106A2C00019308BD4002030008B5024B1B68DB69EB
:106A3C00019308BD4002030008B5024B1B681B6A9A
:106A4C00019308BD4002030008B5024B1B681B6B89
:106A5C00019308BD4002030008B5024B1B685B6B39
:106A6C00019308BD4002030008B5024B1B681B6C68
:106A7C00019308BD4002030008B5024B1B685B6C18
:106A8C00019308BD4002030008B5024B1B681B684C
:106A9C00019308BD1C02030008B5024B1B685B6820
:106AAC00019308BD1C02030008B5024B1B68DB698F
:106ABC00019308BD1C02030008B5024B1B685B6AFE
:106ACC00019308BD1C02030008B5024B1B68DB6A6E
:106ADC00019308BD1C02030008B5024B1B68DB6B5D
:106AEC00019308BD1C02030008B5024B1B681B6C0C
:106AFC00019308BD1C02030008B5024B1B685B6CBC
:106B0C00019308BD1C0203000021FFF729BF000000
:106B1C00024800230360FFF72BBD00BFC4E603202F
:106B2C00002240681146FFF787BF002240681146DB
:106B3C00FFF792BF40680022FFF786BF4068002233
:106B4C0081F00101FFF770BF002340681A46194617
:106B5C00FFF762BF002340681A461946FFF754BF7F
:106B6C00002240681146FFF747BF002240681146DB
:106B7C00FFF732BF406800220221FFF735BF002328
:106B8C0040681A46FFF720BF024B03225A60024AA4
:106B9C001A607047C8E60320B0930B007047F8B535
:106BAC00064615460C468F18BC4206D0336814F8BE
:106BBC00011B9B6830469847F6E72846F8BD007CD9
:106BCC000022FFF755BD007C0021FFF759BD007C6A
:106BDC000021FFF75DBD007C0021FFF761BD007C4B
:106BEC000021FFF765BD10B514210446FDF761FACD
:106BFC00204610BD38B5044615464FF47A73002272
:106C0C00C4E90123094B2174084623602946FFF788
:106C1C005FFDBF3008D16B69DB0705D56868FFF7EE
:106C2C003BFFE868FFF738FF204638BDEC930B00BC
:106C3C00007C0022FFF7FCBC0023007C1A4619469E
:106C4C00FFF7FEBC7FB500221423CDE90122ADF87D
:106C5C0004300B788DF808304B680393CB680493A1
:106C6C00007C0B7A059301A9FFF73AFD07B05DF89C
:106C7C0004FB1FB5003B8DF800104FF0640103912D
:106C8C0018BF0123694601928DF80830FFF7DAFF2F
:106C9C0005B05DF804FB0123FFF7EBBF007C00227D
:106CAC00FFF7D6BCC9B2FFF7F9BF007C0022FFF793
:106CBC00D7BC0121FFF7F9BF704710B51821044666
:106CCC00FDF7F7F9204610BDF0B5037D062B8DB00E
:106CDC000E4600F104074FF0000412D000F1080535
:106CEC0015F8011D0A22304600F073F9AF42044436
:106CFC0019D0002CF4D02E21304600F051F9044468
:106D0C00EEE72F236A4639460A208DF80040FFF73C
:106D1C00F7FC6846FDF786F933680246DB6869467E
:106D2C0030469847044620460DB0F0BD10B5054BD3
:106D3C000446112240F8043B002101F0A3F920463F
:106D4C0010BD00BF14940B000346074A10B543F85E
:106D5C00042B01F1100251F8044B43F8044B9142FF
:106D6C00F9D10A781A7010BD14940B00037D042B12
:106D7C0004D14068003818BF01207047062B07D19A
:106D8C0043683BB983682BB9C3681BB90069F1E749
:106D9C00002070470120704710B59DF8084044EA68
:106DAC00032343EA024242EA016104234160037572
:106DBC0010BD000007B5064B0360CB7800938B78B1
:106DCC004A780978FFF7E8FF03B05DF804FB00BFD1
:106DDC0014940B00014B024A1A607047D0E6032052
:106DEC0020940B00002340681A46FFF7EDBD406865
:106DFC0000220221FFF7F8BD002240681146FFF780
:106E0C00EBBD002240681146FFF7F6BD0023406839
:106E1C001A461946FFF7F8BD002340681A46194672
:106E2C00FFF7FABD40680021FFF71EBE4068002145
:106E3C00FFF722BE4068002281F00101FFF7F4BD8C
:106E4C0040680022FFF700BE002240681146FFF7A1
:106E5C0003BE002240681146FFF7EEBD2DE9F0435A
:106E6C0095B014460D460746FFF760FF00211C2223
:106E7C000DA8009101F006F940230C9320466B46B7
:106E8C000CAA0021FFF764FC044600284BD10246F3
:106E9C0001216868FFF7B0FD022180462246686830
:106EAC00FFF7AAFD009E81462146002E3BD000290B
:106EBC0039D17368022B03D00A2B11D0F669F4E791
:106ECC00B8F1000FFAD0716906A8043107ADFFF7CD
:106EDC0071FF0FCD3C1D0FC42B6823704146EDE7AD
:106EEC00B9F1000FEAD07469102201A801F0CAF8B8
:106EFC0006238DF8143001AD04F10803183418681A
:106F0C0059682A4603C20833A3421546F7D101A992
:106F1C0006A807ADFFF718FF0FCD3C1D0FC42B685B
:106F2C0023704946CAE70098FFF70AFC384615B0AB
:106F3C00BDE8F083024B034A1A6000225A60704786
:106F4C00D4E603202C940B00F8B506460D468F189A
:106F5C000024BD420CD0336815F8011B9B683046E9
:106F6C009847031E01DB1C44F3E7002C08BF1C46AA
:106F7C002046F8BD13B50446084659B10191FDF7FA
:106F8C0051F823680199DB680246204602B0BDE83F
:106F9C001040184702B010BD08B5FFF7EBFF08BD55
:106FAC0003689B68184738B50D210546FFF7F8FFB5
:106FBC000A2104462846FFF7F3FF204438BD38B5B4
:106FCC000546FFF7D7FF04462846FFF7ECFF2044A1
:106FDC0038BD30B58BB00023012A8DF8243098BF12
:106FEC000A2209AC0D46B1FBF2F101FB125303F07E
:106FFC00FF03092B94BF30333733DBB2AA4204F8BA
:10700C00013DEFD92146FFF7B5FF0BB030BD2DE99F
:10701C00F04186B000AF05460E46381D14211446CB
:10702C003B60FFF749FD13280ED8391D2846FFF7A2
:10703C00A1FF04461EB12846FFF7B5FF04442046C5
:10704C001837BD46BDE8F08100F1080323F00703B3
:10705C00E846ADEB030D2246411C3B686846FFF742
:10706C002BFD69462846FFF785FF0446C546E1E738
:10707C00014B00229A607047DCE603200021FFF7E9
:10708C00D7BB0021FFF7CCBB10B5044608462170D6
:10709C00FFF7A6FB00236360204610BD13B5044622
:1070AC000078FFF7EEFF58B9207801904FF6FF718A
:1070BC00FFF786FB019802B0BDE81040FFF7DEBF7A
:1070CC0002B010BD0078FFF7D9BF0000400830B502
:1070DC001860002418688842E5B206D90134082CDF
:1070EC0002D040081860F5E70725024B5B5D137072
:1070FC0030BD00BF60940B002DE9F04306468FB005
:10710C0000780C46FFF7BDFF00281BDB35781422F6
:10711C00002109A800F0B6FF0B23002209A928467C
:10712C00ADF82430FFF76CFB9DF82D3013B19DF8B2
:10713C002C5055B10027B946B846012523795DB1CD
:10714C00C3B100200FB0BDE8F083DDF830809DF8AE
:10715C0034909DF83570F1E7002B35D1A368434589
:10716C0008D18DF820908DF82170BDF82020A389CE
:10717C009A42E6D00023A1688DF80F300A9804AB30
:10718C000DF10F02FFF7A2FF217985B989B9A36828
:10719C0043450ED38DF820908DF82170BDF820203A
:1071AC00A3899A4205D1049B434502D1C9E7002922
:1071BC00F9D100230193637B00939DF80F20237B6F
:1071CC003078FFF725FBBCE7CDE900552B462A4666
:1071DC000121F5E708B50078FFF7FAFAC0B208BD4F
:1071EC0010B50446FFF7DCF9E060236820465B69C4
:1071FC009847002808DAFFF7D3F9E368C01AA368A8
:10720C009842F2D34FF0FF3010BD2DE9F041074604
:10721C000C468E180D46B542A5EB040807D038462F
:10722C00FFF7DEFF031E02DB05F8013BF3E74046E8
:10723C00BDE8F081054B02221A60054B054A9A60A5
:10724C000020C3E90000FFF783BB00BFF8E6032072
:10725C00ECE603200000FFFF13B503688DF8071060
:10726C00DC6B01224FF0FF330DF10701A04702B098
:10727C0010BD10B40368DC6B4FF0FF33A4465DF80F
:10728C00044B604713B5134602688DF80710D46B96
:10729C000DF107010122A04702B010BD10B54369E2
:1072AC00B3F88620B3F884309A42044608D0636958
:1072BC00B3F88420511CA3F884101344187910BD22
:1072CC0003681B6998470028F1D14FF0FF30F6E7AF
:1072DC00704743691868C043C00F7047704700007F
:1072EC00064B994210B500F10C0405D0084600F08D
:1072FC009BFD002808BF0024204610BDA0930B0066
:10730C0010B5AC210446FCF7D4FE204610BDAC21D0
:10731C00FCF7CFBE2DE9F0414FF0000886B01C46BB
:10732C00C0F8048005460E4617464146102202A8B6
:10733C0000F0A8FE631C09D04FF47A73B4FBF3F28F
:10734C0003FB1244CDE902285C43049468691023C2
:10735C000093006802AB41F2050240F6FF71FFF7A3
:10736C00FFF9002807DAFFF7B7FB03686B60002012
:10737C0006B0BDE8F0816869002300683A463146E2
:10738C00FFF70EFA031EEEDB1846F1E738B58469F9
:10739C000A4B036005467CB16368013B63605BB9D3
:1073AC00236820469B689847A368013BA3601BB9E0
:1073BC0023682046DB689847284638BDA4940B0008
:1073CC0010B50446FFF7E2FF20461C21FCF771FEC6
:1073DC00204610BD30B587B0044601AD6846FFF7B6
:1073EC00E9FC0FCD04340FC42B68237007B030BDFB
:1073FC0070B54D69054B04468C3544F8043B064684
:10740C000FCD0FC42B682370304670BD14940B0045
:10741C002DE9F0439846036893B00D460024DB6ACF
:10742C0006461746984728466B4622462146009446
:10743C00FFF78EF90546002863D1009B002B4BD03B
:10744C005B69002B48D006A8FFF770FC009B5C69B9
:10745C006378022B04D1211D06A8FFF7BBFF26E0A1
:10746C000A2B24D11122294601A800F00BFEA36897
:10747C00002B38D004F108030DF1040C18341868F3
:10748C005968624603C20833A3429446F7D10623D7
:10749C0001A90CA88DF81430FFF756FC0DF1340C33
:1074AC00BCE80F0007AC0FC4DCF80030237006A852
:1074BC00FFF75CFC80B1336807ADD3F82090124B1A
:1074CC000C930FCD0DAC0FC42B6823703A4643467A
:1074DC000CA93046C84705460098FFF731F92846F5
:1074EC0013B0BDE8F083E368002BC3D14FF6FF70F7
:1074FC00D4F81090FFF70CF98145BBD104F11401BD
:10750C00AAE72546E8E700BF14940B0038B5436999
:10751C001A68002A054610DAB3F88620B3F88430CE
:10752C009A420AD103681B699847044628B92B680C
:10753C002846DB6A9847204638BD0120FCE710B589
:10754C004369B3F88620B3F884309A42044605D0D8
:10755C006369B3F884201344187910BD03681B6960
:10756C0098470028F4D14FF0FF30F6E7F8B543699F
:10757C001746B3F88620B3F884309A4205460E4677
:10758C0016D06969B1F88430B1F88640E41ABC426F
:10759C0028BF3C46043322461944304600F064FDB3
:1075AC006A69B2F884302344A2F884302046F8BDCE
:1075BC0003681B6998470028E3D14FF0FF34F5E7C7
:1075CC0042690023A2F884304269A2F886307047E1
:1075DC002DE9F0411F4603680C46DB6A8AB005466C
:1075EC0016469847237DD5F81480042B0CBF022037
:1075FC000A2006220121FFF7DBF8C8F800006B69AE
:10760C001B68002B08DA2B682846DB6A0024984795
:10761C0020460AB0BDE8F0812846FFF7D1FFB7B18C
:10762C00002303A9F8B20393ADF81030FFF760F80C
:10763C000028E8D1686906230093006803AB41F287
:10764C000B0240F6FF71FFF78BF80028DBD11C22F0
:10765C00002103A800F016FD237D042B1DD14FF44F
:10766C0007733046ADF80C30FFF762F8ADF80E003A
:10767C006068FFF74DF804906B691C22186803A929
:10768C00FFF77EF80028BED104340FCC6D698C3521
:10769C000FC523682B700124BAE740F61C23304633
:1076AC00ADF80C30FFF744F805AEADF80E00231D15
:1076BC0004F1140718685968324603C20833BB42F8
:1076CC001646F7D1D8E7000030B54269B2F88630DB
:1076DC008BB004462BB1B2F884209A4201D1FFF74B
:1076EC006FFF61690868002818DBB1F886507F2DA0
:1076FC0014D804310823C5F180022944FFF748F857
:10770C00002813DD6369B3F886200AB9A3F8842036
:10771C006369B3F886201044A3F886006369B3F854
:10772C008600B3F88430C01A0BB030BDFFF7D4F923
:10773C0003680B2BF2D0FFF7CFF903680B2BEDD0BE
:10774C0020230025CDE90235FFF7C6F90368019324
:10775C00084B0949009302AA2B463220FFF7F0F898
:10776C0063691868FFF704F863694FF0FF321A6019
:10777C00D4E700BF6F940B0068940B0010B54369FD
:10778C0004461868002801DBFEF7F2FF63694FF02E
:10779C00FF321A606069112200218C3000F072FCFB
:1077AC002046BDE81040FFF70BBF10B50023044680
:1077BC000160C0F884308830FFF7B8FA204610BD5D
:1077CC0073B500234FF47A72C0E901320E4A03619B
:1077DC00026043610446AC200191FCF766FC051E77
:1077EC0005F10C0608D00123C5E90133074B0199BB
:1077FC002B603046FFF7D9FF2046C4E90565FFF73B
:10780C00DFFE02B070BD00BFA4940B0088940B0087
:10781C0010B54FF0FF310446FFF7D2FF204610BDE4
:10782C0010B504460068002801DBFEF7A1FF2046D6
:10783C0010BD0C30FFF7F4BF024B1A68024B1A60F4
:10784C00704700BF34E20320FCE60320704741740C
:10785C00704708B5007CFFF723F820EAE07008BDFC
:10786C0008B5007CFEF7F4FF20EAE07008BD08B50F
:10787C00007CFEF7FDFF40EAE07008BD08B5007C17
:10788C00FEF7EEFF40EAE07008BD007CFEF7F8BFA3
:10789C0037B5457C04462DB1207C03B0BDE83040A3
:1078AC00FEF7CEBF007C0191FEF7FAFF002801998C
:1078BC00F2DC284603B030BD10B514210446FCF7A9
:1078CC00F8FB204610BD000010B54FF47A73044647
:1078DC00084611460022C4E90123044B236001230E
:1078EC0020746374FEF7E4FF204610BD0C950B006A
:1078FC00417470477047704708B50021007CFEF753
:10790C00FFFF40EAE07008BD08B50121007CFEF7DE
:10791C00F7FF40EAE07008BD08B5007CFEF7E8FF11
:10792C0020EAE07008BD08B5007CFEF7D9FF20EA1C
:10793C00E07008BD13B50446007C0191FEF7D8FF3A
:10794C000028019901DC607C20B1207CFEF7E0FF6F
:10795C0020EAE07002B010BD007CFEF7E1BF10B56C
:10796C0014210446FCF7A5FB204610BD10B54FF4BE
:10797C007A73044608460021C4E90113044B2360C2
:10798C000123207463741146FEF79AFF204610BD44
:10799C003C950B00007C0022FEF79ABF10B5142218
:1079AC000446002100F06EFB204610BD10B50F4CB4
:1079BC0088B003A8FFF7F2FF2178BFF35B8F11F0BB
:1079CC0001010FD120460191FCF782FB019948B1CE
:1079DC0003AA0748FFF7CAFF2046FCF77EFB0548C1
:1079EC0000F034FB024808B010BD00BF00E70320D4
:1079FC0004E7032001790B00002240681146FEF7D2
:107A0C00FBBF002240681146FFF716B80022406801
:107A1C001146FFF721B840680022FFF715B84068FF
:107A2C00002281F00101FEF7FFBF002340681A46D7
:107A3C001946FEF7F1BF002340681A461946FEF7B7
:107A4C00E3BF002240681146FEF7C6BF4068002223
:107A5C000221FEF7C9BF002340681A46FEF7B4BFE7
:107A6C00024B04225A60024A1A60704718E703203E
:107A7C006C950B00014B1860704700BF38E2032077
:107A8C0008B50B4B43B1FFF791FF03681B6998478F
:107A9C00002801DDAFF30080064B43B100F09AF9EA
:107AAC0003681B699847002801DDAFF3008008BD0F
:107ABC00000000000000000008B5FFF7E1FFFEF732
:107ACC006FFD014B186008BD28E703200548064AE6
:107ADC00064908B5121A00F0C7FA054B054A1A6098
:107AEC0008BD00BF00F4032004F40320BC980B0075
:107AFC0000F403201E1C279A07B5002300931A4696
:107B0C006FF07701FEF746FF03B05DF804FB000051
:107B1C0007B543880A2B08D0502B0BD1094B1B6897
:107B2C004BB103B05DF804EB1847FFF7E5FF03B06A
:107B3C005DF804FB002300931A466FF07701FEF703
:107B4C0029FFF4E724E7032010B512480021FEF7C3
:107B5C00D3FF114B1A68114B9A42114B0CBF0122E7
:107B6C0000221A7001D0FFF7B1FFFEF709FD0446A1
:107B7C0000F090FA0B4B13B12046AFF300800021BC
:107B8C000848FEF719FFBDE8104007480021FEF732
:107B9C00F7BE00BF817A0B0000F403201E1C279A4D
:107BAC0020E70320000000001D7B0B00232813B5E9
:107BBC0002D9002002B010BDA0F10B03022B1AD881
:107BCC00174C2178BFF35B8F11F001010BD12046CC
:107BDC000191FCF77DFA019928B11248FFF754FA8C
:107BEC002046FCF77AFA0F4B1878FEF701FE0028B6
:107BFC00DFD10120DEE7012809D800F0ABF8002125
:107C0C00007CFEF75DFD80F00100C0B2D2E70938C0
:107C1C000128EED800F0DEF8007CFEF739FEF2E722
:107C2C00B8E60320BCE60320232838B504460D46ED
:107C3C000AD8FF2908D0FFF7B9FF28B129462046FA
:107C4C00BDE83840FEF7BCBC38BD38B504460D461F
:107C5C00FEF7BEFCFF2810D0062804D84D2323FACB
:107C6C0000F0C30709D42046FFF7A0FF28B129462E
:107C7C002046BDE83840FEF7B3BC38BD10B504460D
:107C8C00FEF7A6FC031FDBB2012B08D92046FFF739
:107C9C008DFF20B12046BDE81040FEF7A9BC0020A6
:107CAC0010BD0D2810B504469CBF0E34A4B220465E
:107CBC00FFF77CFF50B103212046FEF779FC032827
:107CCC0004D12046BDE81040FEF7A2BC002010BD38
:107CDC0038B504460D46FFF769FFF0B10421204684
:107CEC00FEF766FC042805D1A9B22046BDE8384051
:107CFC00FEF786BC02212046FEF75AFC02280CD166
:107D0C002046FEF765FC012801D0042805D1294640
:107D1C002046BDE83840FEF783BC38BD70470000F4
:107D2C0038B50A4B036001230446436108492020FF
:107D3C0000F074F8202560600549A560284600F025
:107D4C006DF8C4E90305204638BD00BF18000100DA
:107D5C00A0950B0030B50E4D2978BFF35B8F11F059
:107D6C00010487B011D12846FCF7B2F968B1684616
:107D7C00FFF7D6FF6A4621460648FEF73BFF28462A
:107D8C00FCF7ABF9044800F061F9024807B030BDCC
:107D9C002CE7032030E70320297D0B0070470000FF
:107DAC0038B5044614252A46002100F06BF92580CD
:107DBC004025074925812846258200F02FF80449E3
:107DCC006060284600F02AF8E060204638BD00BF0D
:107DDC00A0950B0030B50E4D2978BFF35B8F11F0D9
:107DEC00010487B011D12846FCF772F968B101A8DB
:107DFC00FFF7D6FF01AA21460648FFF765FD284686
:107E0C00FCF76BF9044800F021F9024807B030BDCB
:107E1C0044E7032048E70320A97D0B00FCF747B992
:107E2C0008B5FEF751FE0000014900F0F9B800BF9B
:107E3C00BC950B007FB500241023CDE902340368F8
:107E4C0015469E6912686B46CDE90044B0479DF813
:107E5C00043003F00603062B03BF009B2B600120AC
:107E6C00204604B070BD0098904214BF012006203B
:107E7C007047000010B5034B0360044600F0CDF8CA
:107E8C00204610BDFC950B0010B50446FFF7F2FF21
:107E9C0020460821FCF70DF9204610BD2DE9F041D4
:107EAC001F46DDE90834DDF818809845064615466E
:107EBC0007D1079900F0B4F818B165710020BDE83E
:107ECC00F0813946304600F0ABF80028F6D001239B
:107EDC00C4F800802571A371F0E738B515461C462F
:107EEC0000F09EF820B10823E3600623256023717F
:107EFC0038BD73B505460C4601921E4600F090F84D
:107F0C0050B9032E08D82368019A5B69294620468C
:107F1C0002B0BDE87040184702B070BD10B5034BFD
:107F2C0003600446FFF7A6FF204610BD5C960B00CD
:107F3C0010B50446FFF7F2FF20460C21FCF7B9F808
:107F4C00204610BDF7B5089F974205460E461446CD
:107F5C000AD0A86802680897156A31462246AC46D2
:107F6C0003B0BDE8F04060471946019300F058F8A3
:107F7C00019B0028EDD0062003B0F0BD2DE9F14F98
:107F8C000D461946DDE90A4BDDE90CA6814617467C
:107F9C00984600F045F890B1002D3460377109DB3C
:107FAC0061198A450CBF06210121B171002001B075
:107FBC00BDE8F08F0235F9D10123B371F6E75445D2
:107FCC0006D15946484600F02BF808B17771EDE719
:107FDC00D9F808000368CDE90CA6CDE90A4BDC6999
:107FEC003A4643462946A44601B0BDE8F04F6047E7
:107FFC002DE9F04107460C4615461E46FFF76DFF6E
:10800C0048B9B86803689F692A4633462146BC467E
:10801C00BDE8F0416047BDE8F08170470020704733
:10802C00814208B50ED0406803782A2B0CD04968E1
:10803C000B782A2B08BF0131FBF7EAFFB0FA80F06E
:10804C00400908BD0120FCE70020FAE700230146A7
:10805C001A46184600F0ECB80A22002100F0DEB8EF
:10806C000A22002100F0DAB80A44914200F1FF33F1
:10807C0000D1704710B511F8014B03F8014F914234
:10808C00F9D110BD02440346934200D1704703F866
:10809C00011BF9E738B5104B1D68AB6B0446B3B93F
:1080AC001820FEF7F1FC0246A86320B90B4B0C48D4
:1080BC004221FEF719FD0B490B4BC0E900130B4B8A
:1080CC0083600B23838100210120C2E90401AB6B87
:1080DC0000221C615A6138BD38E2032095960B00D2
:1080EC00AC960B000E33CDAB34126DE6ECDE050016
:1080FC0010B50139034632B111F8014F03F8014BA9
:10810C00013A002CF7D11A440021934200D110BD42
:10811C0003F8011BF9E70000012B2DE9F04701D012
:10812C00242B06D9FEF7D8FC162303600020BDE8EB
:10813C00F087DFF8E4C00D462E4615F8014B14F815
:10814C000C7017F00807F7D12D2C32D12C780127A1
:10815C00B51C002B5BD0102B09D1302C07D12C78FF
:10816C0004F0DF04582C4DD16C781023023507F144
:10817C00004808F1FF384FF0000CB8FBF3F96646E5
:10818C0003FB198AA4F1300EBEF1090F16D8744600
:10819C00A34224DDBCF1000F1EDBB1451CD301D181
:1081AC00A24519DB06FB03464FF0010C15F8014BF9
:1081BC00E8E72B2C04BF2C78B51CCAE7A4F1410EC0
:1081CC00BEF1190F01D8373CE2E7A4F1610EBEF104
:1081DC00190F04D8573CDBE74FF0FF3CE6E7BCF146
:1081EC00000F05DA22230360464642B930469EE76B
:1081FC0007B17642002AF9D0BCF1000F00D0691EFD
:10820C001160F3E73024002BB1D10823AFE7302CF9
:10821C00A5D00A23ABE700BF06970B0013460A460E
:10822C00014602480068FFF777BF00BF38E2032021
:10823C002DE9F843DFF8B8800646D8F800001F4651
:10824C000D46914600F056F8254B1C6834B9254C68
:10825C001C60254B13B11B68C4F8883063681F2B56
:10826C0007DDD8F8000000F047F84FF0FF30BDE80C
:10827C00F8834EB3D4F8880088B91C4B23B9D8F8CE
:10828C00000000F038F8F0E74FF48470FEF7FCFBC8
:10829C000028F4D00023C0E94033C4F88800636898
:1082AC0040F8239001229A4000EB8301D0F8003172
:1082BC001343C0F80031022EC1F8807002BFD0F811
:1082CC0004311343C0F804316368D8F800005A1C19
:1082DC000233626044F8235000F00EF80020C6E729
:1082EC00E8E703205CE7032000000000956A0B0020
:1082FC009CE20320704770477047000041400B0020
:10830C007D400B00A5400B00A9400B0000000000B5
:10831C0043616C6C206F6E2070757265207669728B
:10832C007475616C00256900256C6900696E006FBD
:10833C0075740070776D00647700617700746D70F0
:10834C006C00544D504C325475346B644D4C63007E
:10835C00767700257500436C6F73652044697374E0
:10836C00616E6365004D656469756D204469737455
:10837C00616E6365004661722044697374616E635B
:10838C006500733962725370484B5847624A4B2DE3
:10839C0050674C466F714273694E4D74322D384C98
:1083AC004F4300626C796E6B2E636C6F7564005377
:1083BC007061726B46756E2056434E4C34303430BF
:1083CC00204578616D706C65004465766963652045
:1083DC006E6F7420666F756E642E20506C656173C1
:1083EC006520636865636B20776972696E672E0020
:1083FC00626C6E6B696E660076657200312E312E82
:10840C003000682D626561740034350062756666F3
:10841C002D696E0031303234006465760050617223
:10842C007469636C65204172676F6E0066772D749A
:10843C0079706500544D504C325475346B644D4C0E
:10844C0063006275696C64004A756E2033302032AB
:10845C003032332031313A35323A323100000000BB
:10846C00000000003E5B4F5B3E3E6B4F6B3E1C3E84
:10847C007C3E1C183C7E3C181C577D571C1C5E7F98
:10848C005E1C00183C1800FFE7C3E7FF0018241817
:10849C0000FFE7DBE7FF30483A060E26297929264C
:1084AC00407F050507407F05253F5A3CE73C5A7F36
:1084BC003E1C1C08081C1C3E7F14227F22145F5F8C
:1084CC00005F5F06097F017F006689956A606060C6
:1084DC00606094A2FFA29408047E040810207E2001
:1084EC001008082A1C08081C2A08081E1010101056
:1084FC000C1E0C1E0C30383E3830060E3E0E06009C
:10850C000000000000005F00000007000700147F5F
:10851C00147F14242A7F2A122313086462364956C6
:10852C0020500008070300001C2241000041221CBF
:10853C00002A1C7F1C2A08083E08080080703000A6
:10854C000808080808000060600020100804023EBB
:10855C005149453E00427F400072494949462141FC
:10856C00494D331814127F1027454545393C4A496B
:10857C0049314121110907364949493646494929AA
:10858C001E000014000000403400000008142241BA
:10859C001414141414004122140802015909063E43
:1085AC00415D594E7C1211127C7F494949363E413E
:1085BC004141227F4141413E7F494949417F09095F
:1085CC0009013E414151737F0808087F00417F41FA
:1085DC00002040413F017F081422417F4040404031
:1085EC007F021C027F7F0408107F3E4141413E7F89
:1085FC00090909063E4151215E7F09192946264980
:10860C0049493203017F01033F4040403F1F204056
:10861C00201F3F4038403F63140814630304780460
:10862C00036159494D43007F414141020408102028
:10863C00004141417F04020102044040404040009F
:10864C000307080020545478407F284444383844A9
:10865C00444428384444287F385454541800087E25
:10866C00090218A4A49C787F0804047800447D4077
:10867C00002040403D007F1028440000417F400016
:10868C007C047804787C080404783844444438FC2E
:10869C001824241818242418FC7C080404084854B2
:1086AC0054542404043F44243C4040207C1C20406F
:1086BC00201C3C4030403C44281028444C90909066
:1086CC007C4464544C4400083641000000770000A0
:1086DC00004136080002010204023C2623263C1EFF
:1086EC00A1A161123A4040207A3854545559215571
:1086FC005579412254547842215554784020545590
:10870C0079400C1E527212395555555939545454DE
:10871C005939555454580000457C410002457D425E
:10872C000001457C407D1211127DF0282528F07C3B
:10873C00545545002054547C547C0A097F493249D5
:10874C004949323A4444443A324A4848303A414121
:10875C00217A3A42402078009DA0A07D3D424242C1
:10876C003D3D4040403D3C24FF2424487E49436627
:10877C002B2FFC2F2BFF0929F620C0887E09032004
:10878C00545479410000447D413048484A323840C5
:10879C0040227A007A0A0A727D0D19317D26292928
:1087AC002F28262929292630484D4020380808082A
:1087BC000808080808382F10C8ACBA2F102834FA4B
:1087CC0000007B000008142A142222142A140855D5
:1087DC0000550055AA55AA55AAFF55FF55FF000094
:1087EC0000FF00101010FF00141414FF001010FFF5
:1087FC0000FF1010F010F0141414FC001414F70007
:10880C00FF0000FF00FF1414F404FC141417101FD5
:10881C0010101F101F1414141F00101010F0000063
:10882C0000001F101010101F10101010F01000007E
:10883C0000FF101010101010101010FF100000008E
:10884C00FF140000FF00FF00001F10170000FC04C5
:10885C00F414141710171414F404F40000FF00F7A8
:10886C0014141414141414F700F71414141714100B
:10887C00101F101F141414F4141010F010F000003A
:10888C001F101F0000001F14000000FC140000F05B
:10889C0010F01010FF10FF141414FF141010101F00
:1088AC0000000000F010FFFFFFFFFFF0F0F0F0F011
:1088BC00FFFFFF0000000000FFFF0F0F0F0F0F382E
:1088CC0044443844FC4A4A4A347E02020606027E7C
:1088DC00027E0263554941633844443C04407E2087
:1088EC001E2006027E020299A5E7A5991C2A492A98
:1088FC001C4C7201724C304A4D4D30304878483027
:10890C00BC625A463D3E494949007E0101017E2A1E
:10891C002A2A2A2A44445F444440514A4440404451
:10892C004A51400000FF0103E080FF000008086B83
:10893C006B083612362436060F090F06000018187D
:10894C000000001010003040FF0101001F01011E4B
:10895C0000191D1712003C3C3C3C000000000000BC
:10896C0000000000000000000000000000000000FB
:10897C00F1560B00556F0B00C5400B00F7500B0068
:10898C00F9500B002B510B0007510B0019510B0028
:10899C0039500B00F7500B0023530B0021530B00E5
:1089AC0043510B0081510B00BB510B0001520B00CA
:1089BC001D520B00A1520B0064656661756C74202E
:1089CC00004D5342004C5342003C53504953657484
:1089DC0074696E67732064656661756C743E003CE7
:1089EC0053504953657474696E67732025732575EC
:1089FC00202573204D4F444525753E000000000096
:108A0C00000000002D580B00FF570B0001580B0005
:108A1C0000000000000180000000000000000000C9
:108A2C00038000000000000000000007C0000000F0
:108A3C0000000000000007C0000000000000000063
:108A4C00000FC00000000000000000001FE000004C
:108A5C00000000000000001FE0000000000000000B
:108A6C0000003FE00000000000000000003FF000AC
:108A7C0000000000000000007FF00000000000007B
:108A8C00001FF87FF0000000000000003FFE7FF0A8
:108A9C00000000000000003FFF7FF000000000001D
:108AAC0000001FFFFBE0000000000000000FFFF9BA
:108ABC00FFC00000000000000FFFF9FFF8000000ED
:108ACC0000000007FFF1FFFF00000000000003FCA6
:108ADC0073FFFF80000000000001FE3FFFFF8000DD
:108AEC000000000000FF1E0FFF000000000000004F
:108AFC007FFE1FFC000000000000003FFFFFF8009D
:108B0C000000000000000FDFFFE00000000000008C
:108B1C00001F19FFC0000000000000003F3CFF00D8
:108B2C00000000000000007E7CF800000000000047
:108B3C0000007FFE7C0000000000000000FFFFFC36
:108B4C000000000000000000FFFFFE00000000001D
:108B5C00000000FFFFFE0000000000000001FFEF1E
:108B6C00FE0000000000000001FFCFFE000000002E
:108B7C0000000003FF07FE0000000000000003FCE3
:108B8C0007FE0000000000000003F003FE000000E0
:108B9C0000000000018000FE00000000000000004A
:108BAC0000007E000000000000000000003E0000FD
:108BBC0000000000000000000C0000000000000796
:108BCC008000FC000003C0000000078001FC0000D6
:108BDC0003C0000000078001FC000003C00000007F
:108BEC00078001E00000001E000000078001E0008B
:108BFC0000001E007FE3F79FF9FDE7787BDFC0FFE5
:108C0C00F7FFBFFDFDFF787BDFC0FFF7FFBFFDFD6A
:108C1C00FF787BDFC0F0F787BC3DE1FF787BDE009F
:108C2C00F0F787BC3DE1F0787BDE0000F787803DF4
:108C3C00E1E0787BDE007FF7879FFDE1E0787BDE6B
:108C4C0000FFF787BFFDE1E0787BDE00F0F787BC23
:108C5C003DE1E0787BDE00F0F787BC3DE1E0787B1E
:108C6C00DE00F0F787BC3DE1E0787BDE00FFF7FF2C
:108C7C00BFFDE1E07FFBDFC0FFF7FFBFFDE1E07F61
:108C8C00FBDFC07CF3F39F3DE1E03E7BCFC00000F7
:108C9C00000000000000000000FFFFFFFFFFFFFFCF
:108CAC00FFFFFFC0FFFFFFFFFD68DB111A31C0FFA4
:108CBC00FFFFFFFD2B5AFB6AEFC0FFFFFFFFFD4BD1
:108CCC005B3B1A33C0FFFFFFFFFD6B5BDB6AFDC034
:108CDC000000600000000000000000000000000028
:108CEC0000E0000000000000000000000000000197
:108CFC00E00000000000000000000000000001F097
:108D0C000000000000000000000000000003F00064
:108D1C0000000000000000000000000007F0000050
:108D2C00000000000000000000000007F800000038
:108D3C00000000000000000000000FF8000000031D
:108D4C00C0007E000001E0007F0FF800000003C0AF
:108D5C0000FE000001E000FFEFF800000003C0007F
:108D6C00FE000001E000FFFFF800000003C000F06F
:108D7C000000000F007FFE7FC0000003C000F00069
:108D8C0000000F003FFE7FF83FF1FBCFFCFEF3BC71
:108D9C003DEFE01FFE7FFF7FFBFFDFFEFEFFBC3DD4
:108DAC00EFE01FC6FFFF7FFBFFDFFEFEFFBC3DEFCA
:108DBC00E00FE3C7FE787BC3DE1EF0FFBC3DEF0087
:108DCC0007FF87FC787BC3DE1EF0F83C3DEF00010B
:108DDC00FFFFF0007BC3C01EF0F03C3DEF0001F341
:108DEC007FE03FFBC3CFFEF0F03C3DEF0003E33FE1
:108DFC00807FFBC3DFFEF0F03C3DEF0007E73C005B
:108E0C00787BC3DE1EF0F03C3DEF0007FFBE007820
:108E1C007BC3DE1EF0F03C3DEF0007FFFE00787BCD
:108E2C00C3DE1EF0F03C3DEF000FFFFE007FFBFFAA
:108E3C00DFFEF0F03FFDEFE00FFFFF007FFBFFDFF9
:108E4C00FEF0F03FFDEFE00FF9FF003E79F9CF9E09
:108E5C00F0F01F3DE7E01FF1FF00000000000000F4
:108E6C0000000000001F80FF007FFFFFFFFFFFFFDF
:108E7C00FFFFFFE01C007F007FFFFFFFFEB46D884B
:108E8C008D18E000001F007FFFFFFFFE95AD7DB544
:108E9C0077E000000F007FFFFFFFFEA5AD9D8D1951
:108EAC00E0000006007FFFFFFFFEB5ADEDB57EE0F4
:108EBC00000000000000000081580B0099580B00C6
:108ECC00F1560B00556F0B00AD580B00F7500B0013
:108EDC00F9500B002B510B0007510B0019510B00D3
:108EEC0039500B00F7500B0023530B004B5A0B005F
:108EFC00F35F0B00A55F0B00BB510B0001520B0085
:108F0C001D520B00A1520B000080C0E0F0F8FCFEDB
:108F1C00000103070F1F3F7FAED580A8D300408D03
:108F2C002000A1C8DB40A4A62EAFDA02818FDA1292
:108F3C0081DA02812200FF21000000000000000005
:108F4C000000000029620B0049620B00F1560B0077
:108F5C00556F0B00AD580B00F7500B00F9500B0080
:108F6C002B510B0007510B0019510B0039500B0002
:108F7C00F7500B0023530B004B5A0B00F35F0B0005
:108F8C00A55F0B00BB510B0001520B001D520B00D7
:108F9C00A1520B0081630B0081630B0081630B00FA
:108FAC0081630B0081630B0081630B0081630B00F9
:108FBC0081630B0081630B0081630B0081630B00E9
:108FCC0081630B0081630B0081630B0081630B00D9
:108FDC0081630B0081630B0081630B0081630B00C9
:108FEC0081630B0081630B0081630B0081630B00B9
:108FFC0081630B0081630B0081630B0081630B00A9
:10900C0081630B0081630B0081630B0081630B0098
:10901C0081630B0081630B0081630B0081630B0088
:10902C0081630B0081630B0081630B0081630B0078
:10903C0081630B0081630B0081630B0081630B0068
:10904C0081630B0081630B0081630B0081630B0058
:10905C0081630B0081630B0081630B0081630B0048
:10906C0081630B0081630B0081630B0081630B0038
:10907C0081630B0081630B0081630B0081630B0028
:10908C0081630B0081630B0081630B0081630B0018
:10909C0081630B0081630B0081630B0081630B0008
:1090AC0081630B0081630B0081630B0081630B00F8
:1090BC0081630B0081630B0081630B0081630B00E8
:1090CC0081630B0081630B0081630B0081630B00D8
:1090DC0081630B0081630B0081630B0081630B00C8
:1090EC0081630B0081630B0081630B0081630B00B8
:1090FC0081630B0081630B0081630B0081630B00A8
:10910C0081630B0081630B0081630B0081630B0097
:10911C0081630B0081630B0081630B0081630B0087
:10912C0081630B0081630B0081630B0081630B0077
:10913C0081630B0081630B0081630B0081630B0067
:10914C0081630B0081630B0081630B0081630B0057
:10915C0081630B0081630B0081630B0081630B0047
:10916C0081630B0081630B0081630B0081630B0037
:10917C0081630B0081630B0081630B0081630B0027
:10918C0081630B0081630B0081630B0081630B0017
:10919C0081630B0083630B0083630B0083630B0001
:1091AC0083630B0083630B0083630B0083630B00EF
:1091BC0083630B0083630B0083630B0083630B00DF
:1091CC0083630B0083630B0083630B0083630B00CF
:1091DC0083630B0083630B0083630B0083630B00BF
:1091EC0083630B0083630B0083630B0083630B00AF
:1091FC0083630B0083630B0083630B0083630B009F
:10920C0083630B0083630B0083630B0083630B008E
:10921C0083630B0083630B0083630B0083630B007E
:10922C0083630B0083630B0083630B0083630B006E
:10923C0083630B0083630B0083630B0083630B005E
:10924C0083630B0083630B0083630B0083630B004E
:10925C0083630B0083630B0083630B0083630B003E
:10926C0083630B0083630B0083630B0083630B002E
:10927C0083630B0083630B0083630B0083630B001E
:10928C0083630B0083630B0083630B0083630B000E
:10929C0083630B0083630B0083630B0083630B00FE
:1092AC0083630B0083630B0083630B0083630B00EE
:1092BC0083630B0083630B0083630B0083630B00DE
:1092CC0083630B0083630B0083630B0083630B00CE
:1092DC0083630B0083630B0083630B0083630B00BE
:1092EC0083630B0083630B0083630B0083630B00AE
:1092FC0083630B0083630B0083630B0083630B009E
:10930C0083630B0083630B0083630B0083630B008D
:10931C0083630B0083630B0083630B0083630B007D
:10932C0083630B0083630B0083630B0083630B006D
:10933C0083630B0083630B0083630B0083630B005D
:10934C0083630B0083630B0083630B0083630B004D
:10935C0083630B0083630B0083630B0083630B003D
:10936C0083630B0083630B0083630B0083630B002D
:10937C0083630B0083630B0083630B0083630B001D
:10938C0083630B0083630B0083630B0083630B000D
:10939C0083630B00000000000000000000000000D0
:1093AC00000000008B6B0B00816B0B00776B0B00CC
:1093BC006D6B0B00616B0B00556B0B00316E0B0072
:1093CC00396E0B00496B0B00416B0B00376B0B00BC
:1093DC002D6B0B00696E0B000000000000000000FC
:1093EC00A96B0B00F36B0B00CB6B0B00AB6B0B0087
:1093FC00D36B0B00DB6B0B00E36B0B00EB6B0B000D
:10940C000000000000000000D56C0B00C56C0B00C8
:10941C00C76C0B00617070000000000000000000C1
:10942C00F16D0B00FB6D0B00056E0B000F6E0B004E
:10943C00196E0B00256E0B00316E0B00396E0B0094
:10944C00416E0B004D6E0B00556E0B005F6E0B00EA
:10945C00696E0B0000081018202830387769726983
:10946C006E670072656376206572726F72203D20A4
:10947C00256400000000000000000000E9720B00F1
:10948C000D730B003F780B001B730B00ED720B0080
:10949C00000000000000000099730B00CD730B005E
:1094AC0065720B007F720B00D5760B00A9720B0056
:1094BC004B750B00DD720B00DD750B001D740B0082
:1094CC0079750B0089770B0019750B00DF720B0097
:1094DC0091720B0021730B00FD730B0025592D2588
:1094EC006D2D25645425483A254D3A2553257A008F
:1094FC0061736374696D650000000000000000007A
:10950C0059780B00C5780B009D780B00556F0B003C
:10951C006D780B0089780B007B780B0097780B002B
:10952C005B780B005F780B0000000000000000006F
:10953C0003790B006B790B0041790B00556F0B0015
:10954C0033790B0005790B0015790B0065790B004D
:10955C0025790B00FD780B000000000000000000D6
:10956C00637A0B00597A0B004F7A0B00057A0B00CB
:10957C00437A0B00377A0B00316E0B00396E0B00FF
:10958C002B7A0B00237A0B00197A0B000F7A0B0045
:10959C00696E0B0000537431395F53705F6D616BF2
:1095AC00655F7368617265645F74616700000000D9
:1095BC00FC950B00A1950B005C960B00D0950B0055
:1095CC0080960B004E31305F5F637878616269760C
:1095DC003131375F5F636C6173735F747970655F92
:1095EC00696E666F4500000000000000C4950B001A
:1095FC00817E0B00957E0B0029800B0029800B00CF
:10960C00FF7E0B00417E0B00E77E0B00A97E0B005A
:10961C00737E0B005C960B002C960B00C4950B0014
:10962C004E31305F5F637878616269763132305FDA
:10963C005F73695F636C6173735F747970655F6985
:10964C006E666F45000000000000000020960B00C5
:10965C00297F0B003D7F0B0029800B0029800B001C
:10966C00FF7E0B00417E0B00FD7F0B00897F0B0002
:10967C00517F0B00FC950B0088960B0053743974CA
:10968C007970655F696E666F005245454E54206D6A
:10969C00616C6C6F632073756363656564656400EE
:1096AC002F746D702F6A656E6B696E732D47434313
:1096BC002D31302D706970656C696E652D34385F95
:1096CC0032303230313132345F313630363138303D
:1096DC003633392F7372632F6E65776C69622F6E18
:1096EC0065776C69622F6C6962632F7374646C6943
:1096FC00622F72616E642E630000202020202020D7
:10970C002020202828282828202020202020202025
:10971C002020202020202020202088101010101025
:10972C001010101010101010101004040404040475
:10973C000404040410101010101010414141414158
:10974C0041010101010101010101010101010101BD
:10975C00010101010110101010101042424242424E
:10976C00420202020202020202020202020202028D
:10977C000202020202101010102000000000000073
:10978C0000000000000000000000000000000000CD
:10979C0000000000000000000000000000000000BD
:1097AC0000000000000000000000000000000000AD
:1097BC00000000000000000000000000000000009D
:1097CC00000000000000000000000000000000008D
:1097DC00000000000000000000000000000000007D
:1097EC00000000000000000000000000000000006D
:1097FC000000000000000000000000004D4D0B00B8
:10980C001D6B0B00956B0B00E16D0B00416F0B009A
:10981C007D700B0041720B0045780B006D7A0B00CC
:10982C00040000001400000003000000474E550027
:10983C002FFF97B20954D6DC95F400974A45B764CC
:04984C007E5C5A40A4
:10985000FC940B003CE2032000000000000000002C
:1098600000000000000000000000000000000000F8
:1098700000000000000000000000000000000000E8
:1098800000000000000000000000000000000000D8
:1098900000000000000000000000000000000000C8
:1098A00000000000000000000000000000000000B8
:0C98B0000000000000000000ECE70320B6
:0498BC0000000000A8
:1098C60000000102030405060708090A0B0C0D0E29
:1098D6000F101112131415161718191A1B1C1D1E1A
:0498E6001F20280017
:0498EA007856341266
:04000003B000401CED
:00000001FF
